:100000000C947A000C94A2000C94A2000C94A20010
:100010000C94A2000C94A2000C94A2000C94A200D8
:100020000C94A2000C94A2000C94A2000C94A200C8
:100030000C94A2000C94A2000C94A2000C94A200B8
:100040000C9421070C94A2000C94EF060C94C906A2
:100050000C94A2000C94A2000C94A2000C94A20098
:100060000C94A2000C94A200CDCCCC3D0AD7233C2A
:1000700017B7D13877CC2B329595E6241FB14F0AAC
:10008000000020410000C84200401C4620BCBE4C7D
:10009000CA1B0E5AAEC59D74000000002400270044
:1000A0002A0000000000250028002B0000000000AE
:1000B00023002600290004040404040404040202AA
:1000C00002020202030303030303010204081020D7
:1000D00040800102040810200102040810200000E2
:1000E00000080002010000030407000000000000F7
:1000F0000000EB0911241FBECFEFD8E0DEBFCDBF5B
:1001000011E0A0E0B1E0E2E9FCE102C005900D924F
:10011000A036B107D9F722E0A0E6B1E001C01D92F8
:10012000A731B207E1F710E0CAE7D0E004C0219799
:10013000FE010E944F0CC937D107C9F70E946B0717
:100140000C94470E0C940000AF92BF92CF92DF92B6
:10015000EF92FF920F931F93CF93DF936C017B017C
:100160008B01040F151FEB015E01AE18BF08C0170D
:10017000D10759F06991D601ED91FC910190F08180
:10018000E02DC6010995892B79F7C501DF91CF9143
:100190001F910F91FF90EF90DF90CF90BF90AF90A5
:1001A0000895FC01538D448D252F30E0842F90E07D
:1001B000821B930B541710F0CF9608950197089562
:1001C000FC01918D828D981761F0A28DAE0FBF2F2B
:1001D000B11D5D968C91928D9F5F9F73928F90E081
:1001E00008958FEF9FEF0895FC01918D828D9817F0
:1001F00031F0828DE80FF11D858D90E008958FEF2D
:100200009FEF0895FC01918D228D892F90E0805CF5
:100210009F4F821B91098F739927089586E791E07C
:100220000E94020121E0892B09F420E0822F089529
:1002300080E090E0892B29F00E940E0181110C943E
:1002400000000895FC01A48DA80FB92FB11DA35A79
:10025000BF4F2C91848D90E001968F739927848FE6
:10026000A689B7892C93A089B1898C918370806409
:100270008C93938D848D981306C00288F389E02DAA
:1002800080818F7D80830895EF92FF920F931F935B
:10029000CF93DF93EC0181E0888F9B8D8C8D981339
:1002A0001AC0E889F989808185FF15C09FB7F89445
:1002B000EE89FF896083E889F98980818370806491
:1002C00080839FBF81E090E0DF91CF911F910F91DC
:1002D000FF90EF900895F62E0B8D10E00F5F1F4FEB
:1002E0000F731127E02E8C8D8E110CC00FB607FCFA
:1002F000FACFE889F989808185FFF5CFCE010E9488
:100300002201F1CFEB8DEC0FFD2FF11DE35AFF4FD2
:10031000F0829FB7F8940B8FEA89FB898081806215
:10032000CFCFCF93DF93EC01888D8823B9F0AA89D2
:10033000BB89E889F9898C9185FD03C0808186FDA0
:100340000DC00FB607FCF7CF8C9185FFF2CF8081EF
:1003500085FFEDCFCE010E942201E9CFDF91CF9141
:100360000895833081F028F4813099F08230A9F02B
:1003700008958730A9F08830C9F08430B1F48091B5
:1003800080008F7D03C0809180008F7780938000F4
:10039000089584B58F7784BD089584B58F7DFBCF94
:1003A0008091B0008F778093B00008958091B00065
:1003B0008F7DF9CFCF93DF93E2EEF0E08491EEEC06
:1003C000F0E0D491EAEBF0E0C491CC23A1F08111EC
:1003D0000E94B101EC2FF0E0EE0FFF1FE455FF4F3C
:1003E000A591B491EC91ED2381E090E009F480E0D7
:1003F000DF91CF91089580E090E0FACF1F93CF93E3
:10040000DF93E2EEF0E09491EEECF0E0D491EAEBD1
:10041000F0E0C491CC23B9F0182F992319F0892F5B
:100420000E94B101EC2FF0E0EE0FFF1FEE55FF4FE1
:10043000A591B4918FB7F894EC91111108C0D095A3
:10044000DE23DC938FBFDF91CF911F910895DE2BC8
:10045000F8CF3FB7F8948091650190916601A09123
:100460006701B091680126B5A89B05C02F3F19F020
:100470000196A11DB11D3FBFBA2FA92F982F882724
:10048000BC01CD01620F711D811D911D42E0660FFF
:10049000771F881F991F4A95D1F708958F929F92D1
:1004A000AF92BF92CF92DF92EF92FF924B015C012D
:1004B0000E9429026B017C010E9429026C197D09AE
:1004C0008E099F09683E734081059105A8F321E0DC
:1004D000821A9108A108B10888EEC80E83E0D81EE0
:1004E000E11CF11C81149104A104B10429F7FF90CF
:1004F000EF90DF90CF90BF90AF909F908F90089536
:10050000CF93DF93EC0188819981DC01ED91FC911F
:100510000190F081E02D09952A813B81820F931F84
:100520009B838A83DF91CF910895CF93DF93EC0172
:1005300088819981DC01ED91FC910280F381E02DAD
:1005400009952A813B81820F931F9B838A83DF91C8
:10055000CF9108958F929F92AF92BF92CF92DF92E8
:10056000EF92FF920F931F93CF93DF93CDB7DEB738
:1005700066970FB6F894DEBF0FBECDBF6C018E013B
:10058000095E1F4F78018AE0882E912CA12CB12C96
:10059000CB01BA01A50194010E94730B942F852F02
:1005A000605DF80162938F01A901692F782F4115D1
:1005B00051056105710561F7A7014E1B5F0BBF0176
:1005C000C6010E94950266960FB6F894DEBF0FBE74
:1005D000CDBFDF91CF911F910F91FF90EF90DF90F2
:1005E000CF90BF90AF909F908F900895FC01258190
:1005F000222339F0F8E02F0290011124820F931F7B
:10060000089590E080E00895FC0101900020E9F752
:100610003197AF01481B590BBC0186E791E00C9460
:10062000A4008F929F92AF92BF920F931F93CF938C
:10063000DF93CDB7DEB7A1970FB6F894DEBF0FBE3C
:10064000CDBF19A2423008F44AE08E010F5D1F4F62
:10065000842E912CB12CA12CA50194010E94730B26
:10066000E62FB901CA01EA30F4F4E05DD801EE9357
:100670008D01232B242B252B79F790E080E0109718
:1006800019F0CD010E940403A1960FB6F894DEBFC5
:100690000FBECDBFDF91CF911F910F91BF90AF9053
:1006A0009F908F900895E95CE1CFEF92FF920F93B6
:1006B0001F93CF93DF93EC018C81982F9F7739F4B0
:1006C000807880628C83198218821B821A828C81C6
:1006D00085FD09C080E090E0DF91CF911F910F91DF
:1006E000FF90EF90089561157105A1F37A018B01D8
:1006F00088819981009749F1DC011696ED91FC9172
:10070000D8010D900020E9F71197AD01401B510B66
:1007100030E020E0309749F0DF010D900020E9F74C
:100720009D01215031092E1B3F0B2417350751F431
:10073000D801200F311F2A173B0771F25D914191BB
:100740005417C9F30E94F602D5CFD7011496ED9144
:10075000FC91159712968D919C9113970896E81726
:10076000F90720F481E018968C93B4CF389715964A
:10077000FC93EE931497309709F4ACCFAA81BB8118
:10078000109791F0CF018A1B9B0B23E095958795DD
:100790002A95E1F715968C93FB83EA8315821482E0
:1007A00017830683CF0198CFF983E883F5CFFB0148
:1007B00001900020E9F73197AF01461B570B0C94CD
:1007C00095021F93CF93DF93E8E1F1E012811123AB
:1007D00079F0329621816213F9CFEC016CE50E9429
:1007E0008002612FCE01DF91CF911F910C94800286
:1007F0006111F9CF69E271E0DF91CF911F910C9403
:10080000D7032F923F924F925F926F927F928F9277
:100810009F92AF92BF92CF92DF92EF92FF920F938F
:100820001F93CF93DF93CDB7DEB76C970FB6F894D5
:10083000DEBF0FBECDBF8C011B01DC0114968C9175
:1008400014978F77863009F499C268F58230A0F149
:100850001296ED90FC901397CC901196DC9084301A
:1008600008F05DC2A701B601C1010E949502F10125
:10087000828193816C960FB6F894DEBF0FBECDBF18
:10088000DF91CF911F910F91FF90EF90DF90CF906C
:10089000BF90AF909F908F907F906F905F904F90A0
:1008A0003F902F9008958C3069F160F4883009F4FE
:1008B00060C28A3009F446C260E371E0C1010E945F
:1008C000D703ECC1803209F4F3C18034A9F76BE59A
:1008D000C1010E948002F8010081118101151105FA
:1008E00009F4E1C1B101C8010E940104C8010E94DC
:1008F000F6028C01892B09F4D6C16CE2C1010E9479
:100900008002ECCFF801C080D180E280F380A701A3
:100910009601C701B6010E94180A8111CDCF20E0CF
:1009200030E0A901C701B6010E94180A882379F0B6
:10093000A7019601C701B6010E94960B9B01AC016D
:10094000C701B6010E94180A882309F4B5CF20E038
:1009500030E0A901C701B6010E94180A87FF08C04C
:100960006DE2C1010E948002F7FAF094F7F8F0946A
:1009700020E836E948E15BE4C701B6010E94310C8A
:1009800087FD88C074E1A72EB12C00E210E0188E1C
:100990001F8AF501E058FF4F6591759185919491FB
:1009A000A70196010E94180A18169CF0F501E85953
:1009B000FF4F2591359145915491C701B6010E9491
:1009C0007E0A6B017C012F89388D200F311F388FF3
:1009D0002F8B1595079534E0A31AB1088CEFA81654
:1009E0008FEFB806B1F655245A9420E030E0A90103
:1009F000C701B6010E94310C18160CF052C02CEA47
:100A000035EC47E257E3C701B6010E94180A1816F1
:100A10000CF447C0A52DB4E0AB02C0011124B12CE9
:100A2000A12CFC01E859FF4F3F019C0120583F4F8A
:100A300049013FEF531609F434C0F301EA0DFB1DE1
:100A4000659175918591949120E030E040E251E408
:100A50000E947E0AA70196010E94310C18169CF490
:100A6000F401EA0DFB1D2591359145915491C70183
:100A7000B6010E947E0A6B017C018F89988D801BD4
:100A8000910B988F8F8B159507955A9494E0A91A1E
:100A9000B108CFCF00E210E055E0552E188E1F8A26
:100AA000A4CFC701B6010E94020C4B015C012B01CF
:100AB0003C0106E080E492E4AFE0B0E0898F9A8FD9
:100AC000AB8FBC8F102F01509AE04916510461047E
:100AD0007104C8F0698D7A8D8B8D9C8D2AE030E091
:100AE00040E050E00E94730B298F3A8F4B8F5C8F50
:100AF000C301B2012AE030E040E050E00E94730BF5
:100B000029013A01DFCFC501B4010E941D0A9B01F2
:100B1000AC01C701B6010E94950B6B017C01698D88
:100B20007A8D8B8D9C8D0E941D0A9B01AC01C701A3
:100B3000B6010E947E0A2B013C010E94020C6B014F
:100B40007C010E941D0A9B01AC01C301B2010E94FD
:100B5000950B9B01AC010E94960B0E94020CC60EE5
:100B6000D71EE81EF91E898D9A8DAB8DBC8DC816D7
:100B7000D906EA06FB06D8F09FEF891A990AA90A56
:100B8000B90AAF89B88DAB2B39F1BAE08B16910455
:100B9000A104B10408F1EF89F88D3196F88FEF8B3D
:100BA000C12CD12C7601812C912C540183942AE004
:100BB000422E512C612C712CC701B601A301920168
:100BC0000E94730B672B682B692B51F4111644F4A8
:100BD00069017A011150F0CFC12CD12C7601E7CFF9
:100BE000B501A401C1010E94AA02112371F14E01B5
:100BF000F1E18F0E911C012F54019AE0492E512CE6
:100C0000612C712C015068F0C701B601A30192015B
:100C10000E94730B605DD4016E934D0169017A01EE
:100C2000F1CF812F90E0BC0160957095F501E81B34
:100C3000F90B31978EE2808344275527461B570BCB
:100C40006A0D7B1DC1010E949502EF89F88DEF2B83
:100C500029F165E6C1010E9480020F89188D17FFF6
:100C600007C06DE2C1010E94800211950195110932
:100C7000FE0177969F018AE0E82EF12CC801B701AA
:100C80000E943B0C805D82938B01672BB9F7A90111
:100C90004E1B5F0BBF01C1010E949502D10112964C
:100CA0008D919C91E7CD6DE5C1010E948002F6CF48
:100CB0006BE7C1010E948002F801008111810115DA
:100CC000110559F1D8011696CC9016971796DC901D
:100CD00062E2C1010E9480027601F70161917F0109
:100CE000662321F0C1010E94E103F7CF62E2C10156
:100CF0000E9480026AE3C1010E948002B101C80122
:100D00000E940104C8010E94F6028C01892B29F07F
:100D10006CE2C1010E948002D2CF6DE7C5CF62E2D2
:100D2000C1010E9480028601E00EF11EE016F1066C
:100D300039F0F80161918F01C1010E94E103F6CF02
:100D400062E2B2CFCD90DD90ED90FC90B701A601AC
:100D5000F7FE0BC06DE2C1010E94800244275527B7
:100D6000BA014C195D096E097F09C1010E94AA02EE
:100D70007ECD4D915D916D917C91F7CF8C9165E326
:100D800071E0811102C06AE371E0C1010E94D703E2
:100D90006ECD1F920F920FB60F9211242F933F9397
:100DA0004F935F936F937F938F939F93AF93BF9373
:100DB000EF93FF9386E791E00E942201FF91EF916C
:100DC000BF91AF919F918F917F916F915F914F9163
:100DD0003F912F910F900FBE0F901F9018951F926B
:100DE0000F920FB60F9211242F938F939F93EF932F
:100DF000FF93E0918601F09187018081E0918C0161
:100E0000F0918D0182FD1BC0908180918F018F5FD9
:100E10008F7320919001821741F0E0918F01F0E0F3
:100E2000EA58FE4F958F80938F01FF91EF919F912C
:100E30008F912F910F900FBE0F901F90189580816A
:100E4000F4CF1F920F920FB60F9211242F933F935E
:100E50008F939F93AF93BF938091610190916201B3
:100E6000A0916301B09164013091600123E0230FF0
:100E70002D3758F50196A11DB11D20936001809377
:100E8000610190936201A0936301B093640180912A
:100E9000650190916601A0916701B091680101968A
:100EA000A11DB11D8093650190936601A093670118
:100EB000B0936801BF91AF919F918F913F912F9116
:100EC0000F900FBE0F901F90189526E8230F0296E3
:100ED000A11DB11DD2CFCF93DF93CDB7DEB7C657DB
:100EE000D1090FB6F894DEBF0FBECDBF789484B59C
:100EF000826084BD84B5816084BD85B5826085BD16
:100F000085B5816085BD80916E00816080936E00A3
:100F10001092810080918100826080938100809195
:100F20008100816080938100809180008160809346
:100F300080008091B10084608093B1008091B00006
:100F400081608093B00080917A00846080937A0001
:100F500080917A00826080937A0080917A0081602B
:100F600080937A0080917A00806880937A00109252
:100F7000C100E0918601F091870182E08083E091D9
:100F80008201F09183011082E0918401F09185014A
:100F90008FEC808310928E01E0918A01F0918B0199
:100FA00086E08083E0918801F091890180818061F1
:100FB0008083E0918801F09189018081886080833D
:100FC000E0918801F0918901808180688083E091BF
:100FD0008801F091890180818F7D80832224239470
:100FE000312C4E018FE0880E911C5E0193E7A90E13
:100FF000B11C109271011092720110927301109243
:10100000740110927501EEECF0E02491EAEBF0E04F
:101010008491882399F090E0880F991FFC01E8568D
:10102000FF4FA591B491FC01EE55FF4F859194912E
:101030008FB7F8949C91292B2C938FBF80E00E944E
:10104000FE0164E170E080E090E00E944E0281E0E9
:101050000E94FE018BE990E00197F1F7EEECF0E0E1
:101060002491EAEBF0E084918823C1F090E0880FAE
:10107000991FFC01E856FF4FA591B491FC01EE5574
:10108000FF4F859194914FB7F8943C91209532236E
:101090003C93FC013081232320834FBF01E117E201
:1010A0000E94DA01892B09F095C001501109C1F79E
:1010B000C0906D01D0906E01E0906F01F0907001D2
:1010C0004090690150906A0160906B0170906C01D2
:1010D0009A8289829C828B82BE82AD82B886AF82E0
:1010E00019861E86AE014F5F5F4F60E471E0CE014E
:1010F0000A960E945503FC01892B41F09481907857
:101100009C609483C082D182E282F382AE014F5F01
:101110005F4F68E471E0CE010A960E945503FC011E
:10112000892B41F0948190789C6094834082518215
:101130006282738261E070E090E080E00E947A0D4C
:101140008C01009731F0FC01108268E271E00E948E
:10115000400E86E791E0F50191838083138212822D
:10116000B501CE010A960E94010450E040E0B801AA
:1011700086E791E00E94A40081E591E00E940403CB
:10118000A7019601C701B6010E94360C882309F415
:1011900090C084E591E00E94040381E591E00E9403
:1011A000040368EB7BE080E090E00E944E020115B2
:1011B000110519F0C8010E94F10CE0E0F0E0EF2BFE
:1011C00009F417CF0E940E01882309F412CF0E9460
:1011D00000000FCF01E117E20E94DA01019721F42C
:1011E00001501109C9F764CF28E2E22EF12C17E073
:1011F00000E091E1C92E97E2D92E0E94DA01892BF5
:1012000029F4F1E0CF1AD108C1F752CF0E94290288
:101210002B013C0181E1C82E87E2D82E0E94DA0121
:10122000019729F481E0C81AD108C1F741CF0E9483
:1012300029026419750986099709693271058105C2
:10124000910568F0E02FF0E0E759FE4F80859101AD
:10125000012E01C0220F0A94EAF7822B8087111118
:1012600026C00F5F17E091E0E91AF10809F0C1CF3D
:101270006091710170E090E080E00E941D0A60932F
:10128000690170936A0180936B0190936C01609186
:10129000730170E090E080E00E941D0A60936D0190
:1012A00070936E0180936F019093700101CF115084
:1012B000DACF26013701E89477F82FEF3FEF4FE7B9
:1012C0005FE7C301B2010E94360C81110DC02FEF00
:1012D0003FEF4FE75FE7C301B2010E94180A1816FB
:1012E0001CF488E591E057CF2FEF3FEF4FE75FE425
:1012F000C701B6010E94310C18161CF48CE591E070
:101300004ACF2FEF3FEF4FE75FECC701B6010E94D6
:10131000180A87FDF3CF20E030E0A901C701B6012C
:101320000E94180A87FF09C06DE286E791E00E94DB
:101330004401F7FAF094F7F8F0942AE037ED43EA25
:101340005BE3C701B6010E94960B2B013C010E9492
:10135000020C6B017C010E941D0A9B01AC01C301C0
:10136000B2010E94950B2B013C014AE0C701B60176
:101370000E9411036EE286E791E00E94440120E0A2
:1013800030E040E251E4C301B2010E947E0A2B0129
:101390003C010E94020C6B01F12CE12C4AE0C701D8
:1013A000B6010E941103C701B6010E941D0A9B01EC
:1013B000AC01C301B2010E94950B20E030E040E295
:1013C00051E40E947E0A0E94020C90E080E04AE014
:1013D0000E941103E2CEE6E7F1E01382128288EE6A
:1013E00093E0A0E0B0E084839583A683B7838AE08E
:1013F00091E09183808385EC90E09587848784ECED
:1014000090E09787868780EC90E0918B808B81ECD1
:1014100090E0938B828B82EC90E0958B848B86ECB2
:1014200090E0978B868B118E128E138E148E0895FA
:101430000E945A0A08F481E00895E89409C097FBD5
:101440003EF490958095709561957F4F8F4F9F4F9B
:101450009923A9F0F92F96E9BB279395F6958795DF
:1014600077956795B795F111F8CFFAF4BB0F11F4A2
:1014700060FF1BC06F5F7F4F8F4F9F4F16C0882349
:1014800011F096E911C0772321F09EE8872F762F7F
:1014900005C0662371F096E8862F70E060E02AF0C0
:1014A0009A95660F771F881FDAF7880F96958795AC
:1014B00097F90895990F0008550FAA0BE0E8FEEF81
:1014C00016161706E807F907C0F012161306E40708
:1014D000F50798F0621B730B840B950B39F40A2601
:1014E00061F0232B242B252B21F408950A2609F4DF
:1014F000A140A6958FEF811D811D08950E94910A3C
:101500000C94020B0E94F40A38F00E94FB0A20F0AF
:10151000952311F00C94EB0A0C94F10A11240C940D
:10152000360B0E94130B70F3959FC1F3950F50E09B
:10153000551F629FF001729FBB27F00DB11D639F85
:10154000AA27F00DB11DAA1F649F6627B00DA11D2B
:10155000661F829F2227B00DA11D621F739FB00DD1
:10156000A11D621F839FA00D611D221F749F332741
:10157000A00D611D231F849F600D211D822F762FDA
:101580006A2F11249F5750409AF0F1F088234AF0B7
:10159000EE0FFF1FBB1F661F771F881F9150504023
:1015A000A9F79E3F510580F00C94EB0A0C94360B82
:1015B0005F3FE4F3983ED4F3869577956795B795AA
:1015C000F795E7959F5FC1F7FE2B880F911D9695C4
:1015D000879597F9089597F99F6780E870E060E034
:1015E00008959FEF80EC089500240A9416161706BC
:1015F00018060906089500240A9412161306140604
:1016000005060895092E0394000C11F4882352F066
:10161000BB0F40F4BF2B11F460FF04C06F5F7F4F1E
:101620008F4F9F4F089557FD9058440F551F59F005
:101630005F3F71F04795880F97FB991F61F09F3FBF
:1016400079F087950895121613061406551FF2CFE8
:101650004695F1DF08C0161617061806991FF1CF38
:1016600086957105610508940895E894BB2766275F
:101670007727CB0197F908952F923F924F925F926F
:101680006F927F928F929F92AF92BF92CF92DF9292
:10169000EF92FF920F931F93CF93DF93CDB7DEB7F7
:1016A000CA1BDB0B0FB6F894DEBF0FBECDBF09948B
:1016B0002A88398848885F846E847D848C849B84E2
:1016C000AA84B984C884DF80EE80FD800C811B81F0
:1016D000AA81B981CE0FD11D0FB6F894DEBF0FBE1F
:1016E000CDBFED010895A1E21A2EAA1BBB1BFD017F
:1016F0000DC0AA1FBB1FEE1FFF1FA217B307E407F1
:10170000F50720F0A21BB30BE40BF50B661F771F48
:10171000881F991F1A9469F7609570958095909528
:101720009B01AC01BD01CF0108955058BB27AA27EA
:101730000E94AD0B0C94020B0E94F40A38F00E9438
:10174000FB0A20F039F49F3F19F426F40C94F10AB7
:101750000EF4E095E7FB0C94EB0AE92F0E94130BC3
:1017600058F3BA17620773078407950720F079F4D6
:10177000A6F50C94350B0EF4E0950B2EBA2FA02D88
:101780000B01B90190010C01CA01A0011124FF272E
:10179000591B99F0593F50F4503E68F11A16F04029
:1017A000A22F232F342F4427585FF3CF4695379528
:1017B0002795A795F0405395C9F77EF41F16BA0BED
:1017C000620B730B840BBAF09150A1F0FF0FBB1F9B
:1017D000661F771F881FC2F70EC0BA0F621F731FE4
:1017E000841F48F4879577956795B795F7959E3F41
:1017F00008F0B0CF9395880F08F09927EE0F9795D2
:10180000879508950E941B0B88F09F5798F0B92F79
:101810009927B751B0F0E1F0660F771F881F991F25
:101820001AF0BA95C9F714C0B13091F00E94350B87
:10183000B1E008950C94350B672F782F8827B85F97
:1018400039F0B93FCCF3869577956795B395D9F77D
:101850003EF490958095709561957F4F8F4F9F4F87
:1018600008950E945A0A08F48FEF08950E945A0AB8
:10187000880B990B0895AA1BBB1B51E107C0AA1F37
:10188000BB1FA617B70710F0A61BB70B881F991F21
:101890005A95A9F780959095BC01CD010895EE0F5A
:1018A000FF1F0590F491E02D09940F931F93CF93A0
:1018B000DF938230910510F482E090E0E091150210
:1018C000F091160230E020E0B0E0A0E0309799F40B
:1018D0002115310509F44AC0281B390B2430310584
:1018E000D8F58A819B816115710589F1FB0193838C
:1018F0008283FE0111C0408151810281138148170A
:101900005907E0F04817590799F4109761F01296BB
:101910000C93129713961C933296CF01DF91CF91BF
:101920001F910F9108950093150210931602F4CFA2
:101930002115310551F04217530738F0A901DB0199
:101940009A01BD01DF01F801C1CFEF01F9CF9093FA
:10195000160280931502CDCFFE01E20FF31F819393
:1019600091932250310939832883D7CF20911302D4
:1019700030911402232B41F4209102013091030194
:101980003093140220931302209100013091010141
:101990002115310541F42DB73EB740910401509116
:1019A0000501241B350BE0911302F0911402E2179C
:1019B000F307A0F42E1B3F0B2817390778F0AC0172
:1019C0004E5F5F4F2417350748F04E0F5F1F50934F
:1019D000140240931302819391939FCFF0E0E0E0D3
:1019E0009CCFCF93DF930097E9F0FC0132971382ED
:1019F0001282A0911502B0911602ED0130E020E0B4
:101A00001097A1F420813181820F931F209113023E
:101A1000309114022817390709F061C0F0931402BD
:101A2000E0931302DF91CF910895EA01CE17DF070B
:101A3000E8F54A815B819E0141155105B1F7E90145
:101A4000FB83EA8349915991C40FD51FEC17FD0719
:101A500061F4808191810296840F951FE901998339
:101A60008883828193819B838A83F0E0E0E01296F1
:101A70008D919C9113970097B9F52D913C911197F9
:101A8000CD010296820F931F209113023091140210
:101A90002817390739F6309751F51092160210922F
:101AA0001502B0931402A0931302BCCFD383C28358
:101AB00040815181840F951FC817D90761F44E5F8B
:101AC0005F4F88819981480F591F518340838A81D4
:101AD0009B81938382832115310509F0B0CFF09368
:101AE0001602E09315029ECFFD01DC01C0CF1382E8
:101AF0001282D7CFB0E0A0E0E0E8FDE00C943E0B0E
:101B00008C01009751F4CB010E94550C8C01C80147
:101B1000CDB7DEB7E0E10C945A0BFC01E60FF71FDE
:101B20009C0122503109E217F30708F49DC0D90146
:101B3000CD91DC911197C617D70798F0C530D10524
:101B400030F3CE0104978617970708F3C61BD70B0F
:101B50002297C193D1936D937C93CF010E94F10C96
:101B6000D6CF5B01AC1ABD0A4C018C0E9D1EA09114
:101B70001502B0911602512C412CF12CE12C10973A
:101B800031F580911302909114028815990509F09E
:101B90005CC04616570608F058C08091000190912D
:101BA0000101009741F48DB79EB740910401509117
:101BB0000501841B950BE817F90708F055C0F09351
:101BC0001402E0931302F90171836083A0CF8D9119
:101BD0009C91119712966C90129713967C90139784
:101BE000A815B90559F56C0142E0C40ED11CCA1400
:101BF000DB0420F1AC014A195B09DA011296159752
:101C000080F06282738251834083D9016D937C930B
:101C1000E114F10471F0D7011396FC93EE9312973F
:101C200076CF22968C0F9D1FF90191838083F3015B
:101C3000EFCFF0931602E093150269CF48165906CC
:101C400008F42C017D01D3019ACFCB010E94550CE1
:101C50007C01009749F0AE01B8010E94370EC8011F
:101C60000E94F10C870153CF10E000E050CFFB0140
:101C7000DC0102C001900D9241505040D8F7089508
:101C8000FB01DC0101900D920020E1F70895F8942A
:021C9000FFCF84
:101C9200000017028000000000004401A400D100EF
:101CA20091010201E000F4002F2F22225C5C620805
:101CB200660C6E0A720D7409005C753030303000AB
:101CC2006E756C6C00747275650066616C7365008C
:101CD2004F6456616C756500546D7056616C756524
:101CE200000D0A006E616E00696E66006F76660016
:00000001FF
